:020000040800F2
:1000000000300020A11C0008D9040008DB0400080F
:10001000DD040008DF040008E1040008000000001F
:10002000000000000000000000000000E3040008E1
:10003000E504000800000000E7040008E9040008E7
:10004000F11C0008F11C0008F11C0008F11C00085C
:10005000F11C0008F11C0008F11C0008F11C00084C
:10006000F11C0008F11C0008F11C0008F11C00083C
:10007000F11C0008F11C0008F11C0008F11C00082C
:10008000F11C0008F11C0008F11C0008F11C00081C
:10009000F1040008F11C0008F11C0008F11C000824
:1000A000F11C0008F11C0008F11C0008F11C0008FC
:1000B000F11C0008F11C000800000000F11C000801
:1000C000F11C00080000000000000000F11C000806
:1000D00000000000F11C0008F11C0008F11C0008E1
:1000E000F11C0008F11C00080000000000000000E6
:1000F0000000000000000000000000000000000000
:1001000000000000000000000000000000000000EF
:100110000000000000000000F11C0008F11C0008B5
:1001200000000000000000000000000000000000CF
:1001300000000000000000000000000000000000BF
:10014000F11C0008F11C0008000000000000000085
:10015000000000000000000000000000000000009F
:10016000000000000000000000000000000000008F
:10017000000000000000000000000000000000007F
:0801800000000000F11C000862
:1001880010B5054C237833B9044B13B10448AFF3C9
:1001980000800123237010BD0C0000200000000027
:1001A8004C1D000808B5034B1BB103490348AFF3C6
:1001B800008008BD00000000100000204C1D000851
:1001C80072B6FEE700B591B02822002106A801F01A
:1001D800B1FD002301930293039304930593012235
:1001E80006924FF4803307930A9202220D920E93DF
:1001F80006A800F0B5FD70B90F23019302230293FE
:10020800002103910491059101A801F0FBF820B9A0
:1002180011B05DF804FBFFF7D3FFFFF7D1FF000033
:1002280008B5054B054A0021054800F052FB00B906
:1002380008BDFFF7C5FF00BF540000205C00002088
:100248009800002008B5064B064A0749074800F001
:10025800C2FA18B9FA2000F06FFD08BDFFF7B0FF29
:10026800280000207800002080000020980000204E
:1002780008B500F03DFD174900234B618B610B6108
:100288000B604B608B60CB600122CA610A620E2250
:100298004A62114A082010619360D36030201060D0
:1002A8000225556013750D4C204600F0E3F92046F1
:1002B80000F063FA2946204600F0B0FBFFF782FF02
:1002C80000F00EF800F058F800F0B2F8FFF7BAFFA7
:1002D800FCE700BF2C0000208000002098000020D0
:1002E80070B588B000240394049405940694079488
:1002F8001F4B5A6942F480025A615A6902F480021B
:100308000092009A5A6942F400325A615A6902F41A
:1003180000320192019A5A6942F480225A615B695B
:1003280003F480230293029B224640F203714FF0AC
:10033800904001F04BFA0F4D2246FB21284601F070
:1003480045FA40F203730393012604960594069434
:1003580003A94FF0904001F05BF9FB230393049647
:100368000594069403A9284601F052F908B070BD17
:10037800001002400004004808B50D480D4B03600A
:100388000423436000238360C3604FF4003202619A
:100398004FF440124261037643768376C37603773F
:1003A800437700F0C1F800B908BDFFF709FFFBE784
:1003B800980000200064004000B589B00023039332
:1003C80004930593069307930268184B9A4202D048
:1003D80009B05DF804FB03F5D633DA6942F0007220
:1003E800DA61DA6902F000720192019A5A6942F4FC
:1003F80000325A615B6903F400330293029B4FF4A5
:10040800C0530393022304930323069309230793FA
:1004180003A94FF0904001F0FBF800221146142088
:1004280001F0ECF9142001F021FAD1E70064004052
:1004380008B50B480B4B03604FF416434360002389
:100448008360C36003610C2242618361C3610362FC
:10045800436201F0E6FB00B908BDFFF7B1FEFBE718
:10046800C00000200044004000B589B00023039379
:1004780004930593069307930268144B9A4202D09B
:1004880009B05DF804FB03F5E633DA6942F400329B
:10049800DA61DA6902F400320192019A5A6942F487
:1004A80000325A615B6903F400330293029B48F2FD
:1004B8000403039302230493032306930723079358
:1004C80003A94FF0904001F0A3F8D9E70044004099
:1004D800FEE7FEE7FEE7FEE7FEE770477047704776
:1004E80008B500F017FC08BD08B5024800F0B4FADA
:1004F80008BD00BF9800002082B00A4B9A6942F0FC
:1005080001029A619A6902F001020092009ADA697E
:1005180042F08052DA61DB6903F080530193019B5A
:1005280002B0704700100240002800F0A18038B5E2
:10053800044690F82030D3B12268136843F00103D1
:10054800136000F0F3FB054623685A6812F0010FA8
:1005580010D100F0EBFB401B0A28F5D9636A43F47D
:1005680000336362052384F82030012038BDFFF78B
:1005780023FFE1E71A6822F002021A6000F0D6FBB6
:10058800054623685A6812F0020F0DD000F0CEFB22
:10059800401B0A28F5D9636A43F4003363620523D4
:1005A80084F820300120E1E7227E012A3DD01A6834
:1005B80022F080021A60637E012B3BD02268136808
:1005C80023F040031360A37E012B39D022681368FF
:1005D80023F020031360E37E012B37D022681368D1
:1005E80043F010031360237F012B35D02268136872
:1005F80023F008031360637F012B33D0226813684C
:1006080023F004031360A368E268134322691343C9
:10061800626913436268013A21681343CB61002081
:100628006062012384F82030A0E71A6842F0800253
:100638001A60C0E72268136843F040031360C2E7FA
:100648002268136843F020031360C4E72268136824
:1006580023F010031360C6E72268136843F0080309
:100668001360C8E72268136843F004031360CAE7FD
:1006780001207047026890F82030013BDBB2012B63
:1006880005D9436A43F4802343620120704730B49C
:10069800D2F8003243F00103C2F800324B6903F08C
:1006A8001F03012000FA03F3D2F81C026FEA030CBF
:1006B80020EA0300C2F81C02C869B0B9D2F80C02DB
:1006C8000CEA0000C2F80C028C884869CD6844EA3C
:1006D8000544483042F830400C8848698D6844EA3F
:1006E8000544483002EBC0004460C86901281BD0AB
:1006F800886980BBD2F804020CEA0000C2F8040240
:10070800086970BBD2F814020CEA0000C2F814029F
:10071800096A01292BD0D2F8003223F00103C2F86C
:100728000032002030BC7047D2F80C021843C2F8DF
:100738000C028C8848690D6844EA0544483042F840
:1007480030408C8948698D6844EA0544483002EB9A
:10075800C0004460CCE7D2F804021843C2F804028F
:10076800CEE7D2F814021843C2F81402D0E7D2F840
:100778001C120B43C2F81C32CDE770B5044690F842
:100788002050EDB2012D06D0436A43F400234362A2
:100798000125284670BD022380F8203002681368BE
:1007A80023F00103136000F0C1FA064623685B6872
:1007B80013F0010F0CD000F0B9FA831B0A2BF5D9FE
:1007C800636A43F400336362052384F82030E0E76A
:1007D80000256562DDE730B590F820C00468A4689C
:1007E8000CF1FF3C5FFA8CFCBCF1010F6BD814F0E4
:1007F800E05F62D0C4F3016CBCF1020F05D9436A13
:1008080043F400034362012062E0012404FA0CF47B
:100818001C608B68002B3DD10D68CB68046843EAE7
:1008280045550CF118031B01E55003680C690CF1E0
:10083800180E03EB0E135C600B7D012B35D0D179BC
:1008480093791B0443EA0163517943EA012314793C
:100858000168234301EB0C11C1F88C31D1789378EE
:100868001B0443EA0163517843EA012311780268C3
:100878000B4302EB0C12C2F8883102680CF1180C19
:100888004FEA0C1C52F80C3043F0010342F80C30CC
:1008980000201DE04C6843EAC403CC6823430CF1F4
:1008A8001804240105682B51BFE7036803EB0E13F6
:1008B800596841F480715960C1E7436A43F40013F1
:1008C8004362012004E0436A43F480234362012029
:1008D80030BD90F820C00CF1FF3C5FFA8CFCBCF1F5
:1008E800010F00F2958030B451B90468E46814F03F
:1008F800030F10D1436A43F400134362012077E0E9
:100908000468246914F0030F05D1436A43F4001303
:10091800436201206CE001F11B04240105682C5995
:1009280004F004049460002C64D101F11B04240138
:1009380005682C59640D1460046801F11B0C4FEA1A
:100948000C1C54F80C4004F00204D460046864449D
:10095800646804F00F041461046864446468C4F3B0
:1009680007249461046864446468240C5461026830
:1009780002EB0112D2F8B8211A70026802EB0112D8
:10098800D2F8B821C2F307225A70026802EB0112AA
:10099800D2F8B821C2F307429A70026802EB01123A
:1009A800D2F8B821120EDA70026802EB0112D2F8FE
:1009B800BC211A71026802EB0112D2F8BC21C2F301
:1009C80007225A71026802EB0112D2F8BC21C2F365
:1009D80007429A71026802EB0112D2F8BC21120E8A
:1009E800DA7179B90268D36843F02003D360002034
:1009F80030BC704701F11B04240105682C59E40838
:100A0800546099E70268136943F020031361EEE725
:100A1800436A43F4802343620120704790F82030F2
:100A2800013BDBB2012B05D9436A43F480234362BF
:100A380001207047026853691943516100207047CB
:100A480070477047704770477047704770477047E6
:100A580070477047704770472DE9F84F054603689F
:100A68005C69D3F804809F68D3F80CB0D3F810A061
:100A7800D3F8189014F001063BD017F0010616D0F1
:100A880001229A6017F0020F08D117F0040F0CD159
:100A980017F0080606D04FF4805608E0FFF7D0FF9D
:100AA800002604E0FFF7CFFF01E04FF4006617F4DB
:100AB800807F0DD02B684FF480729A6017F4007F06
:100AC80040F0868017F4806F00F0868046F4005668
:100AD80017F4803F0DD02B684FF480329A6017F4DA
:100AE800003F40F0838017F4802F00F0838046F4A5
:100AF800004614F0080F07D01BF0100F04D046F47E
:100B080000762B681022DA6014F0040F02D01BF074
:100B1800080F79D114F0020F04D02B68DB6813F0AA
:100B2800030F78D114F0400F07D01AF0100F04D03B
:100B380046F480662B6810221A6114F0200F02D048
:100B48001AF0080F6BD114F0100F04D02B681B6932
:100B580013F0030F6AD114F4003F02D018F0100FFD
:100B680068D114F4803F02D018F0080F69D114F44A
:100B7800004F7AD018F0040F74D014F4807F04D09A
:100B880019F0010F01D046F0010614F4007F04D0DB
:100B980019F0020F01D046F0020614F4806F04D059
:100BA80019F0040F01D046F0040614F4006F59D070
:100BB80019F0700956D0B9F1400F65D058D8B9F17D
:100BC800200F5ED0B9F1300F42D146F0200644E044
:100BD8002846FFF736FF7BE717F4006F02D046F48C
:100BE800804675E72846FFF72FFF71E72846FFF78D
:100BF80029FF7EE717F4002F02D046F4803678E705
:100C08002846FFF722FF74E72B680822DA60284697
:100C1800FFF71CFF7EE72846FFF702FB82E72B68F9
:100C280008221A612846FFF713FF8CE72846FFF7CA
:100C38000EFF90E72B6810225A602846FFF709FF3D
:100C48008FE72B6808225A602846FFF703FF8EE7D4
:100C5800B9F1100F01D146F008062A68936923F00C
:100C6800700393612B6804225A609EB9BDE8F88F1F
:100C7800B9F1500F0BD0B9F1600FEED146F4807680
:100C8800EBE746F01006E8E746F04006E5E746F0F1
:100C98008006E2E76B6A1E436E622846FFF7DBFEBA
:100CA800E4E7000010B504460E4B18784FF47A7349
:100CB800B3FBF0F30C4A1068B0FBF3F000F0E4FD6E
:100CC80068B90F2C01D901200AE0002221464FF013
:100CD800FF3000F093FD054B1C60002000E0012070
:100CE80010BD00BF00000020080000200400002004
:100CF80008B5074A136843F010031360032000F097
:100D08006BFD0020FFF7CEFFFFF7F6FB002008BDC4
:100D180000200240034A1168034B1B780B44136000
:100D2800704700BF4401002000000020014B1868F4
:100D3800704700BF4401002038B50446FFF7F6FFAE
:100D48000546B4F1FF3F02D0044B1B781C44FFF763
:100D5800EDFF401BA042FAD338BD00BF00000020C1
:100D6800002800F0018370B582B00446036813F0D0
:100D7800010F3BD0B54B5B6803F00C03042B1ED06E
:100D8800B24B5B6803F00C03082B13D06368B3F510
:100D9800803F68D0002B40F0928003F1804303F538
:100DA80004331A6822F480321A601A6822F4802206
:100DB8001A605DE0A54B5B6813F4803FE6D04FF402
:100DC800003393FAA3F3A14B19684FF4003393FA55
:100DD800A3F3B3FA83F303F01F03012202FA03F328
:100DE8000B4203D06368002B00F0C082236813F025
:100DF800020F00F0C580954B5B6813F00C0F00F0F4
:100E08009C80924B5B6803F00C03082B00F08F80EA
:100E18002369002B00F0F280012292FAA2F3B3FAC0
:100E280083F303F1845303F584139B001A60FFF7DF
:100E38007DFF0546022393FAA3F3844B1968022326
:100E480093FAA3F3B3FA83F303F01F03012202FA20
:100E580003F30B4240F0C380FFF768FF401B0228F2
:100E6800E8D903208BE2794A136843F4803313608E
:100E7800764AD36A23F00F03A1680B43D3626368F1
:100E8800002B36D0FFF752FF05464FF4003393FA94
:100E9800A3F36E4B19684FF4003393FAA3F3B3FA34
:100EA80083F303F01F03012202FA03F30B429DD1DF
:100EB800FFF73CFF401B6428E7D903205FE2B3F546
:100EC800A02F09D0614B1A6822F480321A601A6880
:100ED80022F480221A60CBE703F18043A3F53C3368
:100EE8001A6842F480221A601A6842F480321A6042
:100EF800BEE7FFF71BFF05464FF4003393FAA3F351
:100F0800524B19684FF4003393FAA3F3B3FA83F3FF
:100F180003F01F03012202FA03F30B423FF466AF0A
:100F2800FFF704FF401B6428E6D9032027E2474B5C
:100F38005B6813F4803F7FF46BAF022393FAA3F34B
:100F4800424B1968022393FAA3F3B3FA83F303F02D
:100F58001F03012202FA03F30B4203D023699342D1
:100F680040F006823948036823F0F8036169F822E3
:100F780092FAA2F2B2FA82F201FA02F21343036081
:100F8800236813F0080F00F08D80A369002B61D04F
:100F9800012191FAA1F2B2FA82F22D4B13449B007F
:100FA8001960FFF7C3FE0546022393FAA3F293FAEA
:100FB800A3F293FAA3F2254A516A93FAA3F3B3FA78
:100FC80083F303F01F03012202FA03F30B4269D1F2
:100FD800FFF7ACFE401B0228E6D90320CFE11B48EF
:100FE800036823F0F8036169F82292FAA2F2B2FAD0
:100FF80082F201FA02F213430360C1E7012393FA74
:10100800A3F3B3FA83F303F1845303F584139B002A
:1010180000221A60FFF78AFE0546022393FAA3F31B
:101028000A4B1968022393FAA3F3B3FA83F303F084
:101038001F03012202FA03F30B42A1D0FFF776FE49
:10104800401B0228E9D9032099E100BF00100240A3
:1010580020819010012292FAA2F2B2FA82F2B74BE2
:1010680013449B0000221A60FFF760FE0546022326
:1010780093FAA3F293FAA3F293FAA3F2B04A516A4D
:1010880093FAA3F3B3FA83F303F01F03012202FADE
:1010980003F30B4206D0FFF749FE401B0228E6D9AE
:1010A80003206CE1236813F0040F00F0A980A44B1F
:1010B800DB6913F0805F20D1A14BDA6942F08052DE
:1010C800DA61DB6903F080530193019B01259D4B95
:1010D8001B6813F4807F12D0E368012B23D073BB05
:1010E80003F1804303F504331A6A22F001021A62FD
:1010F8001A6A22F004021A621AE00025E7E7914A08
:10110800136843F480731360FFF710FE06468D4B97
:101118001B6813F4807FDFD1FFF708FE801B64286B
:10112800F5D903202BE1864A136A43F001031362C1
:10113800E368002B3CD0FFF7F9FD06462BE0052BB2
:1011480009D07F4B1A6A22F001021A621A6A22F049
:1011580004021A62ECE77A4B1A6A42F004021A6235
:101168001A6A42F001021A62E2E7754B196A022311
:1011780093FAA3F3B3FA83F303F01F03012202FAED
:1011880003F319423BD1FFF7D1FD801B41F28833AD
:10119800984200F2EF80022393FAA3F293FAA3F3A2
:1011A800002BE2D1022393FAA3F3654B596ADEE7D9
:1011B800FFF7BCFD064615E0614B196A022393FA56
:1011C800A3F3B3FA83F303F01F03012202FA03F334
:1011D800194214D0FFF7AAFD801B41F288339842C8
:1011E80000F2CA80022393FAA3F293FAA3F3002B26
:1011F800E2D1022393FAA3F3514B596ADEE7B5BB58
:10120800E369002B00F0BA804D4A526802F00C02E4
:10121800082A00F09980022B2FD04FF0807393FAA0
:10122800A3F3B3FA83F303F1845303F584139B0008
:1012380000221A60FFF77AFD04464FF0007393FA14
:10124800A3F33F4B19684FF0007393FAA3F3B3FA73
:1012580083F303F01F03012202FA03F319426BD050
:10126800FFF764FD001B0228E7D9032087E0344A12
:10127800D36923F08053D361C2E74FF0807393FAA8
:10128800A3F3B3FA83F303F1845303F584139B00A8
:1012980000221A60FFF74AFD05464FF0007393FAE3
:1012A800A3F3274B19684FF0007393FAA3F3B3FA2B
:1012B80083F303F01F03012202FA03F3194206D055
:1012C800FFF734FD401B0228E7D9032057E01C49EB
:1012D8004B6823F47413626A206A024313434B6019
:1012E8004FF0807393FAA3F3B3FA83F303F18453B3
:1012F80003F584139B0001221A60FFF717FD0446CB
:101308004FF0007393FAA3F30D4B19684FF0007375
:1013180093FAA3F3B3FA83F303F01F03012202FA4B
:1013280003F3194206D1FFF701FD001B0228E7D994
:10133800032024E0002022E0002020E020819010FB
:101348000010024000700040012B1AD0104B5B685F
:1013580003F48031226A914215D103F47013626A52
:10136800934212D100200AE001207047012006E0D4
:10137800012004E0032002E0032000E0002002B086
:1013880070BD0120FBE70120F9E70120F7E700BF66
:1013980000100240164B5B6803F00C02082A01D0CB
:1013A8001448704703F470114FF4701292FAA2F2C5
:1013B800B2FA82F221FA02F20F49885C0C4AD26A28
:1013C80002F00F020F2191FAA1F1B1FA81F1CA409E
:1013D8000A498A5C13F4803F05D0064BB3FBF2F34D
:1013E80003FB00F07047064B03FB00F0704700BF9B
:1013F8000010024000127A00641D0008741D0008E5
:1014080000093D00002800F0BE8070B50D46044676
:10141800614B1B6803F007038B420BD25E4A1368CB
:1014280023F007030B431360136803F007038B4291
:1014380040F0AB80236813F0020F06D0574A536878
:1014480023F0F003A1680B435360236813F0010FE6
:101458005AD06368012B2DD0022B40D0022292FA79
:10146800A2F24E4A1068022292FAA2F2B2FA82F26C
:1014780002F01F02012101FA02F2104200F08780F7
:1014880046494A6822F0030213434B60FFF74EFCBB
:101498000646424B5B6803F00C036268B3EB820FAD
:1014A80032D0FFF743FC801B41F288339842F0D9D1
:1014B800032067E04FF4003292FAA2F2374A10682C
:1014C8004FF4003292FAA2F2B2FA82F202F01F024C
:1014D800012101FA02F20242D2D1012052E04FF07A
:1014E800007292FAA2F22D4A10684FF0007292FA36
:1014F800A2F2B2FA82F202F01F02012101FA02F20C
:101508001042BDD101203DE0234B1B6803F00703C7
:10151800AB420AD9204A136823F007032B43136010
:10152800136803F00703AB4233D1236813F0040FA9
:1015380006D01A4A536823F4E063E1680B4353600A
:10154800236813F0080F07D0144A536823F4605334
:10155800216943EAC1035360FFF71CFF0F4B5B6827
:1015680003F0F003F02292FAA2F2B2FA82F2D34028
:101578000B4AD35CD8400B4B18600B4B1868FFF72D
:1015880091FB002070BD012070470120FAE701207F
:10159800F8E70120F6E700BF0020024000100240F3
:1015A800841D00080800002004000020014B186872
:1015B800704700BF0800002008B5FFF7F7FF074B8A
:1015C8005B6803F4E0634FF4E06292FAA2F2B2FAC5
:1015D80082F2D340024AD35CD84008BD00100240D2
:1015E800941D000808B5FFF7E1FF074B5B6803F49B
:1015F80060534FF4605292FAA2F2B2FA82F2D340E8
:10160800024AD35CD84008BD00100240941D00086F
:10161800F0B583B0002362E085685E000324B4401F
:1016280025EA0405CC68B4402C438460446824EA65
:101638000C0C4C68C4F300149C4044EA0C0444604D
:101648005EE0DD08083550F8256003F007044FEA2E
:10165800840C0F2404FA0CF426EA040E0C6904FA2C
:101668000CF444EA0E0440F8254060E0032400E04E
:10167800002404FA0EF42C430CF1020C4F4D45F8EB
:101688002C404F4C2568D44325EA02064F6817F4CE
:10169800803F01D042EA0506494D2E606D6804EA94
:1016A80005064F6817F4003F01D042EA0506444D8D
:1016B8006E60AD6804EA05064F6817F4801F01D014
:1016C80042EA05063E4DAE60ED682C404E6816F4C1
:1016D800001F01D042EA0504394AD46001330A6880
:1016E80032FA03F468D04FF0010C0CFA03FC1CEA40
:1016F8000202F3D04C6804F00304013C012C8BD99E
:101708004C6804F00304032C0CD0C4685D004FF04F
:10171800030C0CFA05FC24EA0C0C8C68AC4044EA77
:101728000C04C4604C6804F00304022C89D00468DB
:101738004FEA430E4FF0030C0CFA0EFC24EA0C0C93
:101748004C6804F0030404FA0EF444EA0C04046040
:101758004C6814F4403FC1D01A4CA56945F0010506
:10176800A561A46904F001040194019C4FEA930C5B
:101778000CF10205114C54F8255003F003044FEA0C
:10178800840E0F2404FA0EF425EA0405B0F1904FF4
:101798003FF46EAF0C4CA0420AD004F58064A0421E
:1017A80008D004F58064A0423FF460AF052460E7E8
:1017B80001245EE702245CE703B0F0BD00000140AD
:1017C8000004014000100240000400480AB1816191
:1017D8007047816270470000074AD36823F4E063CA
:1017E8001B041B0C000200F4E060034343F0BF63DA
:1017F80043F40033D360704700ED00E000B5194BA7
:10180800DB68C3F30223C3F1070CBCF1040F28BF44
:101818004FF0040C03F1040EBEF1060F18D9033B78
:101828004FF0FF3E0EFA0CFC21EA0C0199400EFA2B
:1018380003F322EA0303194300280BDB0901C9B2A9
:1018480000F1604000F5614080F800135DF804FB8A
:101858000023E5E700F00F000901C9B2024B195453
:10186800F4E700BF00ED00E014ED00E0002807DB1E
:1018780000F01F02400901239340024A42F8203039
:10188800704700BF00E100E00138B0F1807F0BD263
:101898004FF0E0235861054AF02182F82310002018
:1018A800986107221A6170470120704700ED00E037
:1018B80010B5044683680269134342691343C26939
:1018C8001343016808684E4A024013430B602268BC
:1018D800536823F44053E1680B435360A269236AB9
:1018E8001A4321688B6823F4306313438B602368A1
:1018F800444A934214D0444A934227D002F5806266
:1019080093421FD01023E069B0F5004F20D0082B78
:1019180070D8DFE803F04A60486F636F6F6F660046
:101928003A4B1B6B03F00303032B09D8DFE803F0E2
:101938000204060C0023E6E70423E4E70823E2E7B1
:101948001023E0E70023DEE70223DCE70023DAE7E1
:10195800082B49D8DFE803F0051F254822484848E6
:101968000900FFF729FE002840D06268530803EBFE
:101978004000B0FBF2F080B2A0F110024FF6EF7316
:101988009A4235D820F00F03C0F342001843236869
:10199800D86000201BE0FFF725FEE4E7FFF7FAFC1C
:1019A800E1E71B48E1E71A4802E0FFF705FE18B334
:1019B800636800EB5300B0FBF3F080B2A0F11002B3
:1019C8004FF6EF739A4219D82368D8600020002395
:1019D8006366A36610BDFFF705FEE8E7FFF7DAFCCC
:1019E800E5E74FF40040E3E70120F0E70020EEE7E9
:1019F8000120ECE70120EAE70020E8E70120E6E71C
:101A0800F369FFEF00380140004400400010024035
:101A180000127A00436A13F0010F06D00268536877
:101A280023F40033816A0B435360436A13F0020FB7
:101A380006D00268536823F48033C16A0B435360AD
:101A4800436A13F0040F06D00268536823F4802316
:101A5800016B0B435360436A13F0080F06D002680A
:101A6800536823F40043416B0B435360436A13F0FC
:101A7800100F06D00268936823F48053816B0B43E0
:101A88009360436A13F0200F06D00268936823F42A
:101A98000053C16B0B439360436A13F0400F0AD0A5
:101AA8000268536823F48013016C0B435360036C82
:101AB800B3F5801F0BD0436A13F0800F06D002687D
:101AC800536823F40023816C0B435360704702680A
:101AD800536823F4C003416C0B435360EBE72DE9D3
:101AE800F84305460F4616469946DDF820802C68CF
:101AF800E46937EA04030CBF4FF0010C4FF0000C07
:101B0800B44553D1B8F1FF3FF1D0FFF70FF9A0EB7F
:101B1800090040452DD8B8F1000F2AD02B681A6863
:101B280012F0040FE3D0DA6912F4006FDFD04FF43B
:101B380000621A622A6852E8003F23F4D07342E830
:101B480000310029F6D12A6802F1080353E8003F62
:101B580023F00103083242E800310029F3D12023A1
:101B6800AB67EB67C5F88030002385F87430032035
:101B78001DE02A6852E8003F23F4D07342E80031A0
:101B88000029F6D12A6802F1080353E8003F23F040
:101B98000103083242E800310029F3D12023AB6762
:101BA800EB67002385F87430032000E00020BDE8CF
:101BB800F88330B583B004460023C0F88030FFF7BF
:101BC800B5F805462268126812F0080F0DD123688F
:101BD8001B6813F0040F16D12023A367E3670020C6
:101BE800206684F8740003B030BD6FF07E43009324
:101BF800034600224FF400112046FFF770FF00282B
:101C0800E5D00320EFE76FF07E4300932B460022D8
:101C18004FF480012046FFF762FF0028DCD0032044
:101C2800E1E768B310B50446836F03B32423A367C1
:101C38002268136823F0010313602046FFF738FE7B
:101C4800012813D0636ABBB92268536823F4904310
:101C580053602268936823F02A039360226813680C
:101C680043F0010313602046FFF7A3FF10BD80F87F
:101C78007430FEF7F9FBD9E72046FFF7CBFEE3E720
:101C880001207047034AD2F8883043F47003C2F841
:101C98008830704700ED00E0DFF834D00D480E4979
:101CA8000E4A002302E0D458C4500433C4188C42AE
:101CB800F9D30B4A0B4C002301E013600432A24213
:101CC800FBD3FFF7DFFF00F011F8FEF7D1FAFEE7CC
:101CD80000300020000000200C000020A41D000897
:101CE8000C00002048010020FEE7000070B50D4DF3
:101CF8000D4C641BA4100026A64209D10B4D0C4CB8
:101D080000F020F8641BA4100026A64205D170BD7F
:101D180055F8043B98470136EEE755F8043B9847D9
:101D28000136F2E79C1D00089C1D00089C1D000858
:101D3800A01D000802440346934200D1704703F8EF
:101D4800011BF9E7F8B500BFF8BC08BC9E46704710
:0C1D5800F8B500BFF8BC08BC9E46704700
:101D640002030405060708090A0B0C0D0E0F1010D8
:101D74000102030405060708090A0B0C0D0E0F10D7
:101D84000000000000000000010203040607080927
:081D940000000000010203043D
:041D9C00AD0100088D
:041DA00089010008AD
:0C1DA400010000001000000000127A0096
:0400000508001CA132
:00000001FF
