:020000040800F2
:1000000000300020E12B0008490800084B080008D8
:100010004D0800084F0800085108000800000000C3
:10002000000000000000000000000000530800086D
:10003000550800080000000057080008590800088B
:10004000312C0008312C0008312C0008312C00081C
:10005000312C0008312C0008312C0008312C00080C
:10006000312C0008312C0008312C0008312C0008FC
:10007000312C0008312C0008312C0008312C0008EC
:10008000312C0008312C0008312C0008312C0008DC
:1000900061080008312C0008312C0008312C0008C0
:1000A000312C0008312C0008312C0008312C0008BC
:1000B00071080008312C000800000000312C0008F5
:1000C000312C00080000000000000000312C000866
:1000D00000000000312C000881080008312C0008C5
:1000E000312C0008312C0008000000000000000046
:1000F0000000000000000000000000000000000000
:1001000000000000000000000000000000000000EF
:100110000000000000000000312C0008312C000815
:1001200000000000000000000000000000000000CF
:1001300000000000000000000000000000000000BF
:10014000312C0008312C00080000000000000000E5
:10015000000000000000000000000000000000009F
:10016000000000000000000000000000000000008F
:10017000000000000000000000000000000000007F
:0801800000000000312C000812
:100188000348044B834202D0034B03B1184770471E
:100198001000002010000020000000000548064B59
:1001A8001B1AD90F01EBA301491002D0034B03B16D
:1001B80018477047100000201000002000000000C1
:1001C80010B5064C237843B9FFF7DAFF044B13B197
:1001D8000448AFF300800123237010BD10000020F5
:1001E800000000008C2C000808B5054B1BB1054920
:1001F8000548AFF30080BDE80840FFF7CFBF00BF58
:1002080000000000140000208C2C000808B50D48E0
:100218000D4B03600423436000238360C3604FF4E5
:10022800003202614FF440124261037643768376CE
:10023800C3760377437700F029FC00B908BD00F0C6
:10024800F7F9FBE72C0000200064004000B589B0F6
:100258000023039304930593069307930268184BAE
:100268009A4202D009B05DF804FB03F5D633DA6987
:1002780042F00072DA61DA6902F000720192019AC2
:100288005A6942F400325A615B6903F400330293FD
:10029800029B4FF4C0530393022304930323069352
:1002A8000923079303A94FF0904000F0E3FF0022D1
:1002B8001146142000F03CFF142000F071FFD1E734
:1002C8000064004070B588B0002403940494059439
:1002D800069407941F4B5A6942F480025A615A697E
:1002E80002F480020092009A5A6942F400325A617C
:1002F8005A6902F400320192019A5A6942F4802242
:100308005A615B6903F480230293029B224640F200
:1003180003714FF0904001F08BF80F4D2246FB21FE
:10032800284601F085F840F20373039301260496EA
:100338000594069403A94FF0904000F09BFFFB231F
:10034800039304960594069403A9284600F092FFA7
:1003580008B070BD001002400004004808B5114BF9
:100368005B7813F00A0F0AD10E4B5B7813F00C0F71
:100378000CD10C4B5B7813F0100F0ED108BD4FF465
:1003880000714FF0904001F058F8EDE74FF48061AC
:100398004FF0904001F051F8EBE71021024801F0CE
:1003A8004CF8EBE7540000200004004808B501228F
:1003B8001146024801F03CF808BD00BF000400489F
:1003C80008B500220121024801F032F808BD00BF3B
:1003D8000004004808B501224FF480714FF09040A6
:1003E80001F026F808BD08B500224FF480714FF0DF
:1003F800904001F01DF808BD08B50122022102480D
:1004080001F016F808BD00BF0004004808B5002236
:100418000221024801F00CF808BD00BF00040048A2
:1004280008B5012202214FF0904001F001F808BD03
:1004380008B5002202214FF0904000F0F9FF08BDF6
:1004480008B501228021024800F0F2FF08BD00BF74
:100458000004004808B500228021024800F0E8FFA7
:1004680008BD00BF0004004808B501222021024849
:1004780000F0DEFF08BD00BF0004004808B50022F8
:100488002021024800F0D4FF08BD00BF0004004846
:1004980008B501224021024800F0CAFF08BD00BF8C
:1004A8000004004808B500224021024800F0C0FFBF
:1004B80008BD00BF0004004808B501220821024811
:1004C80000F0B6FF08BD00BF0004004808B50022D0
:1004D8000821024800F0ACFF08BD00BF0004004836
:1004E80008B5012211464FF0904000F0A1FF08BD69
:1004F80008B5002201214FF0904000F099FF08BD97
:1005080008B5FFF795FFFFF781FFFFF76CFFFFF7CF
:1005180057FFFFF7EDFFFFF7D9FFFFF7C3FFFFF71F
:10052800ADFFFFF797FF0B4801F050FC00221021A8
:10053800094800F07DFF00224FF400714FF0904011
:1005480000F076FF00224FF480614FF0904000F0F9
:100558006FFF08BD980000200004004808B5314B23
:1005680000221A60FFF7CCFF2F4B1B7813F0010F06
:100578003DD12D4B1B7813F0020F3BD12A4B1B7832
:1005880013F0040F39D1284B1B7813F0080F37D11B
:10059800254B1B7813F0100F35D1234B1B7813F024
:1005A800200F33D1204B1B7813F0400F31D11E4B55
:1005B80093F90030002B2FDB1B4B5B7813F0010FF6
:1005C8002DD1194B5B7813F0060F09D1164B9B7987
:1005D80013F0100F04D1144BDB7913F0200F02D065
:1005E800124801F0B9FB0F4B01221A6008BDFFF752
:1005F800DDFEBEE7FFF7EEFEC0E7FFF7FDFEC2E750
:10060800FFF70EFFC4E7FFF71BFFC6E7FFF740FF42
:10061800C8E7FFF751FFCAE7FFF762FFCCE7FFF72C
:1006280023FFCEE70000002054000020980000209F
:1006380072B6FEE700B591B02822002106A802F0A4
:1006480019FB00230193029303930493059301225A
:1006580006924FF4803307930A9202220D920E936A
:1006680006A800F0F3FE70B90F230193022302934A
:10067800002103910491059101A801F037FA20B9EE
:1006880011B05DF804FBFFF7D3FFFFF7D1FF0000BF
:1006980000B58BB000F0D6F91F4D284600F01FFBBF
:1006A8000221284600F0EEFB01230893002405945C
:1006B80006940494009401940294039407930E23DF
:1006C80009936946284600F087FA144B02251D61F4
:1006D8009C60DC6040F203321A60114B1C704E22A1
:1006E8005A70FFF7A7FFFFF7EDFDFFF78FFD00F04A
:1006F8002BF900F0D3F82A460A490B4802F042FACF
:10070800FFF7FEFE094B1B68012BFBD102220549AE
:10071800054802F037FAF5E72C0000208000002099
:100728007800002054000020E40000200000002091
:1007380010B50446FFF7E4FE324B334A0021204649
:1007480000F0FBFA00283FD12E4B1B7813F0010F65
:100758003CD12C4B1B7813F0020F3AD1294B1B7854
:1007680013F0040F38D1274B1B7813F0080F36D13C
:10077800244B1B7813F0100F34D1224B1B7813F045
:10078800200F32D11F4B1B7813F0400F30D11D4B77
:1007980093F90030002B2EDB1A4B5B7813F0010F16
:1007A8002CD1184B5B7813F0060F09D1154B9B79A8
:1007B80013F0100F04D1134BDB7913F0200F02D084
:1007C800124801F0C9FA10BDFFF732FFFFF7EEFD3E
:1007D800BFE7FFF7FFFDC1E7FFF70EFEC3E7FFF72F
:1007E8001FFEC5E7FFF72CFEC7E7FFF751FEC9E775
:1007F800FFF762FECBE7FFF773FECDE7FFF734FEA6
:10080800CFE700BF540000205C00002098000020C3
:1008180082B00A4B9A6942F001029A619A6902F021
:1008280001020092009ADA6942F08052DA61DB69CB
:1008380003F080530193019B02B0704700100240FF
:10084800FEE7FEE7FEE7FEE7FEE770477047704702
:1008580008B500F009F908BD08B5024800F030FBFA
:1008680008BD00BF2C00002008B5024801F0CBFAF3
:1008780008BD00BF9800002008B5024801F01CFD23
:1008880008BD00BFE4000020034AD2F8883043F4D2
:100898007003C2F88830704700ED00E000B589B0F9
:1008A80000230493059306930793019302930393FC
:1008B80015484FF0804202604FF4FA72426083603C
:1008C8004FF47A52C2600361836101F0B1FB90B9C1
:1008D8004FF48053049304A90B4801F0E7FB68B96F
:1008E80000230193039301A9074801F05FFC40B975
:1008F80009B05DF804FBFFF79BFEE9E7FFF798FEF8
:10090800EEE7FFF795FEF3E7980000200368B3F1E0
:10091800804F00D0704700B583B003F50433DA691F
:1009280042F00102DA61DB6903F001030193019BE4
:10093800002211461C2000F0FBFB1C2000F030FCBC
:1009480003B05DF804FB000008B50B480B4B0360CF
:100958004FF41643436000238360C36003610C2295
:1009680042618361C3610362436202F07AF800B9AD
:1009780008BDFFF75DFEFBE7E400002000440040EF
:1009880000B589B000230393049305930693079356
:100998000268184B9A4202D009B05DF804FB03F5CF
:1009A800E633DA6942F40032DA61DA6902F40032D5
:1009B8000192019A5A6942F400325A615B6903F460
:1009C80000330293029B48F2040303930223049327
:1009D800032306930723079303A94FF0904000F0E1
:1009E80049FC00221146262000F0A2FB262000F038
:1009F800D7FBD1E70044004010B504460E4B1A78E7
:100A08004FF47A73B3FBF2F30C4A1068B0FBF3F0BF
:100A180000F0D4FB68B90F2C01D901200AE00022AC
:100A280021464FF0FF3000F083FB054B1C6000208F
:100A380000E0012010BD00BF0800002004000020D5
:100A48000C00002008B5074A136843F01003136030
:100A5800032000F05BFB0020FFF7CEFFFFF7D8FE76
:100A6800002008BD00200240034A1168034B1B7890
:100A78000B441360704700BF680100200800002085
:100A8800014B1868704700BF68010020002800F07B
:100A9800A18038B5044690F82030D3B12268136895
:100AA80043F001031360FFF7EBFF054623685A681C
:100AB80012F0010F10D1FFF7E3FF401B0A28F5D908
:100AC800636A43F400336362052384F8203001200D
:100AD80038BDFFF7BBFBE1E71A6822F002021A6093
:100AE800FFF7CEFF054623685A6812F0020F0DD0B3
:100AF800FFF7C6FF401B0A28F5D9636A43F40033A1
:100B08006362052384F820300120E1E7227E012A70
:100B18003DD01A6822F080021A60637E012B3BD018
:100B28002268136823F040031360A37E012B39D099
:100B38002268136823F020031360E37E012B37D06B
:100B48002268136843F010031360237F012B35D00C
:100B58002268136823F008031360637F012B33D0E6
:100B68002268136823F004031360A368E268134340
:100B780022691343626913436268013A2168134387
:100B8800CB6100206062012384F82030A0E71A6856
:100B980042F080021A60C0E72268136843F04003FD
:100BA8001360C2E72268136843F020031360C4E7A8
:100BB8002268136823F010031360C6E722681368DD
:100BC80043F008031360C8E72268136843F004037E
:100BD8001360CAE701207047026890F82030013B93
:100BE800DBB2012B05D9436A43F480234362012019
:100BF800704730B4D2F8003243F00103C2F8003233
:100C08004B6903F01F03012000FA03F3D2F81C021A
:100C18006FEA030C20EA0300C2F81C02C869B0B9E5
:100C2800D2F80C020CEA0000C2F80C028C88486961
:100C3800CD6844EA0544483042F830400C88486999
:100C48008D6844EA0544483002EBC0004460C86936
:100C580001281BD0886980BBD2F804020CEA000086
:100C6800C2F80402086970BBD2F814020CEA00004A
:100C7800C2F81402096A01292BD0D2F8003223F0F5
:100C88000103C2F80032002030BC7047D2F80C02D1
:100C98001843C2F80C028C8848690D6844EA054478
:100CA800483042F830408C8948698D6844EA0544E8
:100CB800483002EBC0004460CCE7D2F80402184385
:100CC800C2F80402CEE7D2F814021843C2F814029C
:100CD800D0E7D2F81C120B43C2F81C32CDE770B52E
:100CE800044690F82050EDB2012D06D0436A43F433
:100CF800002343620125284670BD022380F8203076
:100D08000268136823F001031360FFF7B9FE064673
:100D180023685B6813F0010F0CD0FFF7B1FE831B4B
:100D28000A2BF5D9636A43F400336362052384F818
:100D38002030E0E700256562DDE790F820C00CF17F
:100D4800FF3C5FFA8CFCBCF1010F00F2958030B4D7
:100D580051B90468E46814F0030F10D1436A43F4EE
:100D680000134362012077E00468246914F0030F3C
:100D780005D1436A43F40013436201206CE001F19A
:100D88001B04240105682C5904F004049460002C09
:100D980064D101F11B04240105682C59640D146009
:100DA800046801F11B0C4FEA0C1C54F80C4004F0C9
:100DB8000204D46004686444646804F00F04146195
:100DC800046864446468C4F3072494610468644450
:100DD8006468240C5461026802EB0112D2F8B8214D
:100DE8001A70026802EB0112D2F8B821C2F3072286
:100DF8005A70026802EB0112D2F8B821C2F3074216
:100E08009A70026802EB0112D2F8B821120EDA7059
:100E1800026802EB0112D2F8BC211A71026802EBD7
:100E28000112D2F8BC21C2F307225A71026802EB00
:100E38000112D2F8BC21C2F307429A71026802EB90
:100E48000112D2F8BC21120EDA7179B90268D3689E
:100E580043F02003D360002030BC704701F11B042D
:100E6800240105682C59E408546099E7026813695D
:100E780043F020031361EEE7436A43F4802343629F
:100E88000120704790F82030013BDBB2012B05D9D7
:100E9800436A43F480234362012070470268536920
:100EA8000B43536100207047704770477047704785
:100EB8007047704770477047704770477047704772
:100EC8002DE9F84F054603685C69D3F804809F68EC
:100ED800D3F80CB0D3F810A0D3F8189014F001068A
:100EE8003BD017F0010616D001229A6017F0020FC6
:100EF80008D117F0040F0CD117F0080606D04FF4EC
:100F0800805608E0FFF7D0FF002604E0FFF7CFFF88
:100F180001E04FF4006617F4807F0DD02B684FF482
:100F280080729A6017F4007F40F0868017F4806F13
:100F380000F0868046F4005617F4803F0DD02B68E9
:100F48004FF480329A6017F4003F40F0838017F422
:100F5800802F00F0838046F4004614F0080F07D075
:100F68001BF0100F04D046F400762B681022DA60CC
:100F780014F0040F02D01BF0080F79D114F0020FFF
:100F880004D02B68DB6813F0030F78D114F0400FFE
:100F980007D01AF0100F04D046F480662B68102290
:100FA8001A6114F0200F02D01AF0080F6BD114F058
:100FB800100F04D02B681B6913F0030F6AD114F4C7
:100FC800003F02D018F0100F68D114F4803F02D00F
:100FD80018F0080F69D114F4004F7AD018F0040FF4
:100FE80074D014F4807F04D019F0010F01D046F0BA
:100FF800010614F4007F04D019F0020F01D046F066
:10100800020614F4806F04D019F0040F01D046F0E2
:10101800040614F4006F59D019F0700956D0B9F1CC
:10102800400F65D058D8B9F1200F5ED0B9F1300F14
:1010380042D146F0200644E02846FFF736FF7BE71A
:1010480017F4006F02D046F4804675E72846FFF78C
:101058002FFF71E72846FFF729FF7EE717F4002FD7
:1010680002D046F4803678E72846FFF722FF74E777
:101078002B680822DA602846FFF71CFF7EE728461F
:10108800FFF756FB82E72B6808221A612846FFF70C
:1010980013FF8CE72846FFF70EFF90E72B68102216
:1010A8005A602846FFF709FF8FE72B6808225A6025
:1010B8002846FFF703FF8EE7B9F1100F01D146F07C
:1010C80008062A68936923F0700393612B68042249
:1010D8005A609EB9BDE8F88FB9F1500F0BD0B9F13D
:1010E800600FEED146F48076EBE746F01006E8E7AD
:1010F80046F04006E5E746F08006E2E76B6A3343D0
:101108006B622846FFF7DBFEE4E70000074AD36876
:1011180023F4E0631B041B0C000200F4E0600343AB
:1011280043F0BF6343F40033D360704700ED00E041
:1011380000B5194BDB68C3F30223C3F1070CBCF1FC
:10114800040F28BF4FF0040C03F1040EBEF1060F84
:1011580018D9033B4FF0FF3E0EFA0CFC21EA0C01B4
:1011680099400EFA03FE22EA0E020A4300280BDB1E
:101178001201D2B200F1604000F5614080F800230E
:101188005DF804FB0023E5E700F00F001201D2B27E
:10119800024B1A54F4E700BF00ED00E014ED00E044
:1011A800002807DB00F01F02400901239340024A90
:1011B80042F82030704700BF00E100E00138B0F18C
:1011C800807F0BD24FF0E0235861054AF02182F866
:1011D80023100020986107221A6170470120704788
:1011E80000ED00E0034690F82120022A06D00422F0
:1011F8008263002280F820200120704701680A6875
:1012080022F00E020A6001680A6822F001020A60F0
:10121800026CC06B012101FA02F2426083F82110CE
:10122800002083F82000704708B590F82130022B81
:1012380003D004238363012008BD0268136823F0E8
:101248000E0313600268136823F001031360036C34
:10125800C16B012202FA03F34B6080F821200023BE
:1012680080F82030436B13B198470020E4E7002052
:10127800E2E70000F0B583B0002362E085685E0015
:101288000324B44025EA0405CC68B4402C438460A8
:10129800456825EA0C054C68C4F300149C402C43AF
:1012A80044605FE0DD08083550F8254003F0070C7E
:1012B8004FEA8C0C4FF00F0E0EFA0CFE24EA0E0EBD
:1012C8000C6904FA0CF444EA0E0440F8254060E086
:1012D800032400E0002404FA0EF42C430CF1020C61
:1012E8004F4D45F82C404F4C2568D44325EA02065B
:1012F8004F6817F4803F01D042EA0506494D2E6039
:101308006D6804EA05064F6817F4003F01D042EA09
:101318000506444D6E60AD6804EA05064F6817F48B
:10132800801F01D042EA05063E4DAE60ED682C40B4
:101338004E6816F4001F01D042EA0504394AD46009
:1013480001330A6832FA03F468D04FF0010C0CFA42
:1013580003FC1CEA0202F3D04C6804F00304013CCD
:10136800012C8BD94C6804F00304032C0CD0C468FE
:101378005D004FF0030C0CFA05FC24EA0C0C8C6899
:10138800AC4044EA0C04C4604C6804F00304022C2A
:1013980088D004684FEA430E4FF0030C0CFA0EFC99
:1013A80024EA0C0C4C6804F0030404FA0EF444EA32
:1013B8000C0404604C6814F4403FC1D01A4CA56971
:1013C80045F00105A561A46904F001040194019C9C
:1013D8004FEA930C0CF10205114C54F8255003F018
:1013E800030E4FEA8E0E0F2404FA0EF425EA0405C4
:1013F800B0F1904F3FF46EAF0C4CA0420AD004F508
:101408008064A04208D004F58064A0423FF460AF35
:10141800052460E701245EE702245CE703B0F0BD21
:101428000000014000040140001002400004004890
:101438000AB18161704781627047436901EA03021A
:1014480021EA030141EA024181617047002800F066
:10145800FF8270B582B00446036813F0010F3BD0D9
:10146800B44B5B6803F00C03042B1ED0B14B5B68D4
:1014780003F00C03082B13D06368B3F5803F68D0E2
:10148800002B40F0928003F1804303F504331A687F
:1014980022F480321A601A6822F480221A605DE011
:1014A800A44B5B6813F4803FE6D04FF4003393FA03
:1014B800A3F3A04B19684FF4003393FAA3F3B3FADC
:1014C80083F303F01F03012202FA03F30B4203D054
:1014D8006368002B00F0BE82236813F0020F00F04F
:1014E800C480944B5B6813F00C0F00F09C80914B08
:1014F8005B6803F00C03082B00F08F802369002B36
:1015080000F0F080012292FAA2F3B3FA83F303F118
:10151800845303F584139B001A60FFF7B1FA05465C
:10152800022393FAA3F3834B1968022393FAA3F3D4
:10153800B3FA83F303F01F03012202FA03F30B4209
:1015480040F0C280FFF79CFA401B0228E8D903202C
:1015580089E2784A136843F480331360754AD36A82
:1015680023F00F03A1680B43D3626368002B36D0C6
:10157800FFF786FA05464FF4003393FAA3F36D4B51
:1015880019684FF4003393FAA3F3B3FA83F303F023
:101598001F03012202FA03F30B429DD1FFF770FAF1
:1015A800401B6428E7D903205DE2B3F5A02F09D0DA
:1015B800604B1A6822F480321A601A6822F480227A
:1015C8001A60CBE703F18043A3F53C331A6842F471
:1015D80080221A601A6842F480321A60BEE7FFF768
:1015E8004FFA05464FF4003393FAA3F3514B1968A9
:1015F8004FF4003393FAA3F3B3FA83F303F01F0312
:10160800012202FA03F30B423FF466AFFFF738FA00
:10161800401B6428E6D9032025E2464B5B6813F497
:10162800803F7FF46BAF022393FAA3F3414B196811
:10163800022393FAA3F3B3FA83F303F01F030122FF
:1016480002FA03F30B4203D02369934240F0048269
:101658003848036823F0F8036169F82292FAA2F285
:10166800B2FA82F291400B430360236813F0080F2B
:1016780000F08C80A369002B60D0012191FAA1F2BF
:10168800B2FA82F22C4B13449B001960FFF7F8F969
:101698000546022393FAA3F293FAA3F293FAA3F26C
:1016A800244A516A93FAA3F3B3FA83F303F01F03AE
:1016B800012202FA03F30B4268D1FFF7E1F9401B5C
:1016C8000228E6D90320CEE11A48036823F0F8037C
:1016D8006169F82292FAA2F2B2FA82F291400B43BF
:1016E8000360C2E7012393FAA3F3B3FA83F303F188
:1016F800845303F584139B0000221A60FFF7C0F996
:101708000546022393FAA3F30A4B1968022393FAB6
:10171800A3F3B3FA83F303F01F03012202FA03F3DE
:101728000B42A2D0FFF7ACF9401B0228E9D90320ED
:1017380099E100BF0010024020819010012292FA26
:10174800A2F2B2FA82F2B74B13449B0000221A604D
:10175800FFF796F90546022393FAA3F293FAA3F248
:1017680093FAA3F2B04A516A93FAA3F3B3FA83F354
:1017780003F01F03012202FA03F30B4206D0FFF71E
:101788007FF9401B0228E6D903206CE1236813F097
:10179800040F00F0A980A44BDB6913F0805F20D10F
:1017A800A14BDA6942F08052DA61DB6903F08053B9
:1017B8000193019B01259D4B1B6813F4807F12D078
:1017C800E368012B23D073BB03F1804303F5043393
:1017D8001A6A22F001021A621A6A22F004021A62D4
:1017E8001AE00025E7E7914A136843F48073136011
:1017F800FFF746F906468D4B1B6813F4807FDFD14F
:10180800FFF73EF9801B6428F5D903202BE1864AAF
:10181800136A43F001031362E368002B3CD0FFF71F
:101828002FF906462BE0052B09D07F4B1A6A22F0C8
:1018380001021A621A6A22F004021A62ECE77A4B71
:101848001A6A42F004021A621A6A42F001021A6223
:10185800E2E7754B196A022393FAA3F3B3FA83F309
:1018680003F01F03012202FA03F319423BD1FFF7E9
:1018780007F9801B41F28833984200F2EF80022377
:1018880093FAA3F293FAA3F3002BE2D1022393FA7B
:10189800A3F3654B596ADEE7FFF7F2F8064615E051
:1018A800614B196A022393FAA3F3B3FA83F303F0A3
:1018B8001F03012202FA03F3194214D0FFF7E0F8DC
:1018C800801B41F28833984200F2CA80022393FABF
:1018D800A3F293FAA3F3002BE2D1022393FAA3F322
:1018E800514B596ADEE7B5BBE369002B00F0BA80BB
:1018F8004D4A526802F00C02082A00F09980022B27
:101908002FD04FF0807393FAA3F3B3FA83F303F164
:10191800845303F584139B0000221A60FFF7B0F884
:1019280004464FF0007393FAA3F33F4B19684FF046
:10193800007393FAA3F3B3FA83F303F01F030122AE
:1019480002FA03F319426BD0FFF79AF8001B02283A
:10195800E7D9032087E0344AD36923F08053D36161
:10196800C2E74FF0807393FAA3F3B3FA83F303F15A
:10197800845303F584139B0000221A60FFF780F854
:1019880005464FF0007393FAA3F3274B19684FF0FD
:10199800007393FAA3F3B3FA83F303F01F0301224E
:1019A80002FA03F3194206D0FFF76AF8401B02282F
:1019B800E7D9032057E01C494B6823F47413626A83
:1019C800206A024313434B604FF0807393FAA3F3EA
:1019D800B3FA83F303F1845303F584139B000122C4
:1019E8001A60FFF74DF804464FF0007393FAA3F31B
:1019F8000D4B19684FF0007393FAA3F3B3FA83F30E
:101A080003F01F03012202FA03F3194206D1FFF77C
:101A180037F8001B0228E7D9032024E0002022E041
:101A2800002020E02081901000100240007000404B
:101A3800012B1AD0104B5B6803F48031226A914263
:101A480015D103F47013626A934212D100200AE0A0
:101A580001207047012006E0012004E0032002E095
:101A6800032000E0002002B070BD0120FBE7012048
:101A7800F9E70120F7E700BF00100240164B5B684A
:101A880003F00C02082A01D01448704703F47011BF
:101A98004FF4701292FAA2F2B2FA82F221FA02F22A
:101AA8000F49885C0C4AD26A02F00F020F2191FAA2
:101AB800A1F1B1FA81F1CA400A498A5C13F4803F66
:101AC80005D0064BB3FBF2F303FB00F07047064B5F
:101AD80003FB00F0704700BF0010024000127A00BC
:101AE800BC2C0008CC2C000800093D00002800F0A0
:101AF800BE8070B50D460446614B1B6803F00703B2
:101B08008B420BD25E4A136823F007030B43136022
:101B1800136803F007038B4240F0AB80236813F08F
:101B2800020F06D0574A536823F0F003A1680B430D
:101B38005360236813F0010F5AD06368012B2DD02E
:101B4800022B40D0022292FAA2F24E4A10680222D8
:101B580092FAA2F2B2FA82F202F01F02012101FA0D
:101B680002F2104200F0878046494A6822F00302D8
:101B780013434B60FEF784FF0646424B5B6803F055
:101B88000C036268B3EB820F32D0FEF779FF801B3B
:101B980041F288339842F0D9032067E04FF40032CD
:101BA80092FAA2F2374A10684FF4003292FAA2F27F
:101BB800B2FA82F202F01F02012101FA02F2024295
:101BC800D2D1012052E04FF0007292FAA2F22D4ACF
:101BD80010684FF0007292FAA2F2B2FA82F202F0A2
:101BE8001F02012101FA02F21042BDD101203DE09D
:101BF800234B1B6803F00703AB420AD9204A13683A
:101C080023F007032B431360136803F00703AB4269
:101C180033D1236813F0040F06D01A4A536823F40B
:101C2800E063E1680B435360236813F0080F07D0A3
:101C3800144A536823F46053216943EAC10353608B
:101C4800FFF71CFF0F4B5B6803F0F003F02292FADA
:101C5800A2F2B2FA82F2D3400B4AD35CD8400B4BC3
:101C680018600B4B1868FEF7C7FE002070BD0120F6
:101C780070470120FAE70120F8E70120F6E700BFE6
:101C88000020024000100240A42C0008040000209C
:101C98000C000020014B1868704700BF04000020AA
:101CA80008B5FFF7F7FF074B5B6803F4E0634FF4F1
:101CB800E06292FAA2F2B2FA82F2D340024AD35C0C
:101CC800D84008BD00100240B42C000808B5FFF742
:101CD800E1FF074B5B6803F460534FF4605292FADC
:101CE800A2F2B2FA82F2D340024AD35CD84008BDCD
:101CF80000100240B42C000810B4036A046A24F0EF
:101D080001040462846924F0F00C4CEA021223F006
:101D18000A030B43826103625DF8044B704710B4F9
:101D2800036A23F0100303628469036A24F4704C85
:101D38004CEA023223F0A00343EA011382610362F2
:101D48005DF8044B7047836823F070030B4343F03E
:101D5800070383607047000090F83D30DBB2012B29
:101D68002AD1022380F83D300268D36843F001038A
:101D7800D3600368134A934210D0B3F1804F0DD05B
:101D8800A2F59432934209D002F59E32934205D0CF
:101D98001A6842F001021A600020704799680A4ADE
:101DA8000A40062A0AD0B2F5803F09D01A6842F0E4
:101DB80001021A6000207047012070470020704718
:101DC80000207047002C0140070001000268D3681A
:101DD80023F00103D3600368196A41F2111211421A
:101DE80008D1196A40F24442114203D11A6822F01C
:101DF80001021A60012380F83D30002070477047C7
:101E080070477047704710B5044603681A6912F0A6
:101E1800020F11D0DA6812F0020F0DD06FF0020233
:101E28001A610123037703689B6913F0030F79D0C4
:101E3800FFF7E6FF0023237723681A6912F0040FDF
:101E480012D0DA6812F0040F0ED06FF004021A6193
:101E58000223237723689B6913F4407F68D02046C8
:101E6800FFF7CEFF0023237723681A6912F0080FC3
:101E780012D0DA6812F0080F0ED06FF008021A615B
:101E8800042323772368DB6913F0030F57D0204618
:101E9800FFF7B6FF0023237723681A6912F0100FA3
:101EA80012D0DA6812F0100F0ED06FF010021A611B
:101EB800082323772368DB6913F4407F46D0204644
:101EC800FFF79EFF0023237723681A6912F0010F9A
:101ED80003D0DA6812F0010F3FD123681A6912F0B3
:101EE800800F03D0DA6812F0800F3DD123681A6999
:101EF80012F4807F03D0DA6812F0800F3BD1236898
:101F08001A6912F0400F03D0DA6812F0400F39D185
:101F180023681A6912F0200F03D0DA6812F0200F34
:101F280037D110BDFFF76BFF2046FFF76AFF81E747
:101F38002046FFF764FF2046FFF763FF92E720463D
:101F4800FFF75DFF2046FFF75CFFA3E72046FFF79A
:101F580056FF2046FFF755FFB4E76FF001021A61FC
:101F68002046FEF7FBF9B8E76FF080021A612046B9
:101F780000F059F9BAE76FF480721A61204600F050
:101F880053F9BCE76FF040021A612046FFF73AFFA9
:101F9800BEE76FF020021A61204600F043F9C0E75F
:101FA8000368224A904206D0B0F1804F03D0A2F5D0
:101FB8009432904203D123F070034A6813431B4ABA
:101FC800904212D0B0F1804F0FD0A2F594329042D7
:101FD8000BD002F59E32904207D002F58062904203
:101FE80003D002F58062904203D123F44073CA689B
:101FF800134323F080034A69134303608B68C36269
:102008000B688362094B98420BD003F5A0539842A2
:1020180007D003F58063984203D003F580639842A4
:1020280001D10B690363012343617047002C014010
:1020380060B310B5044690F83D3013B3022384F81A
:102048003D30214651F8040BFFF7AAFF012384F81D
:10205800483084F83E3084F83F3084F8403084F8C3
:10206800413084F8423084F8433084F8443084F8AE
:10207800453084F8463084F8473084F83D300020F5
:1020880010BD80F83C30FEF741FCD7E701207047CF
:1020980010B4846824F47F4C42EA03220A4342EADB
:1020A8000C0282605DF8044B7047000090F83C30E9
:1020B800012B76D010B50446012380F83C3002236A
:1020C80080F83D3002689068374B034093600B6896
:1020D800602B4CD029D8402B54D00CD9502B22D16E
:1020E800CA6849682068FFF707FE50212068FFF793
:1020F8002AFE002005E0202B0DD009D9302B0AD06C
:102108000120012384F83D30002384F83C3010BDC1
:102118000BB1102B05D119462068FFF714FE0020DB
:10212800EFE70120EDE70120EBE7B3F5805F34D05E
:10213800B3F5005F0CD1CB684A6889682068FFF75F
:10214800A7FF2268936843F4804393600020D8E790
:10215800702B24D1CB684A6889682068FFF798FFFC
:102168002268936843F0770393600020C9E7CA6840
:1021780049682068FFF7D3FD60212068FFF7E3FD79
:102188000020BEE7CA6849682068FFF7B5FD40210E
:102198002068FFF7D8FD0020B3E70020B1E7012051
:1021A800AFE70220704700BF8800FEFF90F83C2090
:1021B800012A33D030B40346012280F83C200222A1
:1021C80080F83D20006842688468154DA84220D0F8
:1021D80022F070020D682A4342601A681048824251
:1021E8000AD0B2F1804F07D0A0F59430824203D0D4
:1021F80000F59E30824204D124F08004896821438E
:102208009160012283F83D20002083F83C0030BC17
:10221800704722F470024D682A43D9E702207047BC
:10222800002C0140704770477047026852E8003F31
:1022380023F4907342E800310029F6D1026802F1D4
:10224800080353E8003F23F00103083242E8003155
:102258000029F3D1036E012B05D02023C367002387
:10226800036643667047026852E8003F23F0100394
:1022780042E800310029F6D1EFE7704708B5026857
:1022880052E8003F23F0400342E800310029F6D12C
:102298002023836700238366FFF7EFFF08BD70479D
:1022A80008B5406A0023A0F85A30A0F85230FFF76A
:1022B800F6FF08BD7047000070B504460168CB6999
:1022C80008688D6840F60F021A4005D113F0200FF8
:1022D80002D010F0200F20D12AB115F0010222D12E
:1022E800AB4E30421FD1226E012A00F0AB8013F4AE
:1022F800801F03D015F4800F40F0378113F0800F52
:1023080003D010F0800F40F0378113F0400F03D056
:1023180010F0400F40F0378170BD636E002BFBD08A
:1023280020469847F8E713F0010F09D010F4807F92
:1023380006D001250D62D4F880102943C4F8801016
:1023480013F0020F09D042B1216802250D62D4F8BA
:10235800801041F00401C4F8801013F0040F09D074
:1023680042B1216804250D62D4F8801041F00201C1
:10237800C4F8801013F0080F0BD010F0200F00D114
:102388003AB1226808211162D4F880200A43C4F8BF
:10239800802013F4006F0CD010F0806F09D02268F1
:1023A8004FF400611162D4F8802042F02002C4F892
:1023B8008020D4F88020002AAED013F0200F06D059
:1023C80010F0200F03D0636E0BB120469847D4F865
:1023D800802023689B6813F0400F02D112F0280F69
:1023E80029D02046FFF721FF23689B6813F0400F90
:1023F8001DD0226802F1080353E8003F23F0400390
:10240800083242E800310029F3D1236F5BB1614AF9
:102418005A63206FFEF708FF00283FF47DAF206F56
:10242800436B984778E72046FFF739FF74E7204663
:10243800FFF735FF70E72046FFF731FF0023C4F8A8
:10244800803069E713F0100F3FF451AF10F0100F10
:102458003FF44DAF10230B6223689B6813F0400FC5
:102468004CD0226F13685B689BB2002B3FF454AFCB
:10247800B4F8581099427FF64FAFA4F85A309369D0
:10248800202B30D0226852E8003F23F4807342E8C2
:1024980000310029F6D1226802F1080353E8003F11
:1024A80023F00103083242E800310029F3D1226801
:1024B80002F1080353E8003F23F04003083242E8E2
:1024C80000310029F3D12023E36700232366226823
:1024D80052E8003F23F0100342E800310029F6D10A
:1024E800206FFEF77FFEB4F85810B4F85A309BB24C
:1024F800C91A89B22046FFF7DDFE0DE7B4F8581077
:10250800B4F85A309BB2C91A89B2B4F85A309BB29F
:10251800002B3FF401AF00293FF4FEAE226852E8D9
:10252800003F23F4907342E800300028F6D1226877
:1025380002F1080353E8003F23F00103083242E8A0
:1025480000300028F3D12023E36700232366636665
:10255800226852E8003F23F0100342E800300028C8
:10256800F6D12046FFF7A6FED6E64FF480130B629D
:10257800204600F02FFBCFE6A36E002B3FF4CCAE35
:1025880020469847C8E62046FFF778FEC4E600BF15
:1025980020010004A922000808B5B0F85C30C26F19
:1025A800222A05D00268936943F00803936108BDA5
:1025B8000268918CDBB2426D0B401370436D01339E
:1025C8004365B0F85A309BB2013B9BB2A0F85A3031
:1025D800B0F85A309BB2002BE9D1026852E8003FAC
:1025E80023F4907342E800310029F6D1026802F121
:1025F800080353E8003F23F00103083242E80031A2
:102608000029F3D12023C36700234366036E012BFF
:1026180016D100230366026852E8003F23F0100336
:1026280042E800310029F6D10368DA6912F0100F88
:1026380001D010221A62B0F85810FFF73BFEB6E737
:10264800FDF78CFFB3E708B5B0F85C30C26F222AFB
:1026580005D00268936943F00803936108BD0268D6
:10266800918C426D0B401380436D02334365B0F883
:102678005A309BB2013B9BB2A0F85A30B0F85A309E
:102688009BB2002BEAD1026852E8003F23F4907312
:1026980042E800310029F6D1026802F1080353E844
:1026A800003F23F00103083242E800310029F3D14A
:1026B8002023C36700234366036E012B16D1002332
:1026C8000366026852E8003F23F0100342E8003135
:1026D8000029F6D10368DA6912F0100F01D0102230
:1026E8001A62B0F85810FFF7E5FDB7E7FDF736FFB7
:1026F800B4E7000010B504468368026913434269D1
:102708001343C2691343016808684E4A02401A43DA
:102718000A602268536823F44053E1680B4353600E
:10272800A269236A1A4321688B6823F43063134330
:102738008B602368444A934214D0444A934227D07A
:1027480002F5806293421FD01023E069B0F5004F74
:1027580020D0082B70D8DFE803F04A60486F636F19
:102768006F6F66003A4B1B6B03F00303032B09D80A
:10277800DFE803F00204060C0023E6E70423E4E79D
:102788000823E2E71023E0E70023DEE70223DCE783
:102798000023DAE7082B49D8DFE803F0051F2548AE
:1027A800224848480900FFF77BFA002840D06268B1
:1027B800530803EB4003B3FBF2F39BB2A3F1100100
:1027C8004FF6EF72914235D823F00F02C3F342035C
:1027D80013432268D36000201BE0FFF777FAE4E791
:1027E800FFF74CF9E1E71B48E1E71A4802E0FFF779
:1027F80057FA18B3636800EB5300B0FBF3F080B2EC
:10280800A0F110024FF6EF739A4219D82368D860E6
:10281800002000236366A36610BDFFF757FAE8E7B8
:10282800FFF72CF9E5E74FF40040E3E70120F0E774
:102838000020EEE70120ECE70120EAE70020E8E7C6
:102848000120E6E7F369FFEF00380140004400404B
:102858000010024000127A00436A13F0010F06D0FC
:102868000268536823F40033816A0B435360436A58
:1028780013F0020F06D00268536823F48033C16A4C
:102888000B435360436A13F0040F06D00268536881
:1028980023F48023016B0B435360436A13F0080F42
:1028A80006D00268536823F40043416B0B4353601E
:1028B800436A13F0100F06D00268936823F480531C
:1028C800816B0B439360436A13F0200F06D00268B4
:1028D800936823F40053C16B0B439360436A13F06E
:1028E800400F0AD00268536823F48013016C0B432D
:1028F8005360036CB3F5801F0BD0436A13F0800F4D
:1029080006D00268536823F40023816C0B4353609C
:1029180070470268536823F4C003416C0B4353604B
:10292800EBE72DE9F84305460F4616469946DDF8CC
:1029380020802B68DC6937EA04040CBF01240024DA
:10294800B44253D1B8F1FF3FF3D0FEF799F8A0EBAA
:10295800090040452DD8B8F1000F2AD02B681A6815
:1029680012F0040FE5D0DA6912F4006FE1D04FF4E9
:1029780000621A622A6852E8003F23F4D07342E8E2
:1029880000310029F6D12A6802F1080353E8003F14
:1029980023F00103083242E800310029F3D1202353
:1029A800AB67EB67C5F88030002385F874300320E7
:1029B8001DE02A6852E8003F23F4D07342E8003152
:1029C8000029F6D12A6802F1080353E8003F23F0F2
:1029D8000103083242E800310029F3D12023AB6714
:1029E800EB67002385F87430032000E00020BDE881
:1029F800F88330B583B004460023C0F88030FEF772
:102A08003FF805462268126812F0080F0DD12368B6
:102A18001B6813F0040F16D12023A367E367002077
:102A2800206684F8740003B030BD6FF07E430093D5
:102A3800034600224FF400112046FFF772FF0028DA
:102A4800E5D00320EFE76FF07E4300932B4600228A
:102A58004FF480012046FFF764FF0028DCD00320F4
:102A6800E1E768B310B50446836F03B32423A36773
:102A78002268136823F0010313602046FFF73AFE2B
:102A8800012813D0636ABBB92268536823F49043C2
:102A980053602268936823F02A03936022681368BE
:102AA80043F0010313602046FFF7A3FF10BD80F831
:102AB8007430FDF765FFD9E72046FFF7CDFEE3E761
:102AC800012070474165A0F85820A0F85A2000233B
:102AD80043668368B3F5805F06D0A3B9036973B909
:102AE800FF23A0F85C3014E0036923B940F2FF1318
:102AF800A0F85C300DE0FF23A0F85C3009E07F23EC
:102B0800A0F85C3005E0B3F1805F27D00023A0F87F
:102B18005C300023C0F880302223C367026802F1CA
:102B2800080353E8003F43F00103083242E800314C
:102B38000029F3D18368B3F5805F19D00F4B436642
:102B4800002380F87430026852E8003F43F4907321
:102B580042E800310029F6D10020704703691BB90B
:102B68007F23A0F85C30D4E73F23A0F85C30D0E79F
:102B78000369002BE2D1024B4366E1E7A125000877
:102B88004F26000838B5C36F202B1BD1E1B1EAB13D
:102B980090F87430012B1BD0012380F87430002387
:102BA800036603685B6813F4000F08D0046854E8F0
:102BB800003F43F0806344E80035002DF6D1FFF76D
:102BC80081FF00E0022038BD0120FCE70120FAE780
:102BD8000220F8E770470000DFF834D00D480E49AE
:102BE8000E4A002302E0D458C4500433C4188C425F
:102BF800F9D30B4A0B4C002301E013600432A242C4
:102C0800FBD3FDF741FE00F011F8FDF741FDFEE7AB
:102C1800003000200000002010000020E42C0008F4
:102C2800100000206C010020FEE7000070B50D4D7B
:102C38000D4C641BA4100026A64209D10B4D0C4C68
:102C480000F020F8641BA4100026A64205D170BD30
:102C580055F8043B98470136EEE755F8043B98478A
:102C68000136F2E7DC2C0008DC2C0008DC2C00081C
:102C7800E02C000802440346934200D1704703F851
:102C8800011BF9E7F8B500BFF8BC08BC9E467047C1
:0C2C9800F8B500BFF8BC08BC9E467047B1
:102CA40000000000000000000102030406070809F8
:102CB40000000000010203040203040506070809DA
:102CC4000A0B0C0D0E0F1010010203040506070871
:082CD400090A0B0C0D0E0F1094
:042CDC00F1010008FA
:042CE000C90100081E
:102CE4000100000000127A00010000001000000042
:0400000508002BE1E3
:00000001FF
